:100000003AC1000054C1000052C1000050C10000BC
:100010004EC100004CC100004AC1000048C10000B0
:1000200046C1000044C100000C94512F0C941730BD
:100030003EC100003CC100003AC1000038C10000D0
:1000400036C1000034C1000032C1000030C10000E0
:100050002EC100002CC100002AC1000028C10000F0
:1000600026C1000024C1000022C1000020C1000000
:100070001EC100001CC100001AC1000018C1000010
:1000800016C1000014C1000012C1000010C1000020
:100090000EC100000CC100000AC1000008C1000030
:1000A00006C1000004C1000002C10000456E746575
:1000B00072696E672044617461204C6F6767657276
:1000C000204D6F64650D0A00456E746572696E6738
:1000D000204D6173732053746F72616765204D6F9B
:1000E00064650D0A001201100100000008EB0345D1
:1000F00020000001020001090220000101008032FD
:1001000009040000020806500007058302400000B1
:1001100007050402400000040309041803440065B5
:100120000061006E002000430061006D00650072F8
:1001300000610000002E034C0055004600410020E5
:10014000004D006100730073002000530074006FC5
:100150000072006100670065002000440065006DCA
:10016000006F0000005220256C692025690D0A00EF
:100170005720256C692025690D0A004572726F723F
:100180002072656164696E67205344206361726404
:1001900020696E666F0D0A006572726F7220777249
:1001A0006974696E6720746F2066696C650D0A005A
:1001B0006572726F722077726974696E6720746FEE
:1001C0002066696C650D0A006572726F72206F702F
:1001D000656E696E672066696C650D0A00777269E5
:1001E00074696E672E2E2E0D0A006572726F722072
:1001F0006372656174696E672066696C650D0A00DB
:100200006F70656E696E6720726F6F7420646972BB
:100210006563746F7279206661696C65640D0A00AC
:100220006F70656E696E672066696C65737973744B
:10023000656D206661696C65640D0A006F70656E9E
:10024000696E6720706172746974696F6E2066618F
:10025000696C65640D0A004D4D432F534420696E4F
:10026000697469616C697A6174696F6E206661692D
:100270006C65640D0A0011241FBECFEFDAE0DEBF0B
:10028000CDBF11E0A0E0B1E0EEE6FCE602C00590D3
:100290000D92AA38B107D9F714E0AAE8B1E001C07D
:1002A0001D92AC3EB107E1F717D30C943536A8CEBA
:1002B000ACE2B0E0EEE5F1E00C94B43229833A838D
:1002C0004B835C836D837E838F839887A986BA86F0
:1002D000CB86DC86ED86FE860F87188B69807A8058
:1002E0008B809C8069A27AA28BA29CA2840173015C
:1002F0008FEF9FEFA0E0B0E0E822F9220A231B2352
:1003000014014424552469847A848B849C846DA2CE
:100310007EA28FA298A664015301A822B922CA2204
:10032000DB22340188249924C601B501A801970174
:100330000E944C3269A77AA78BA79CA7C401B3017E
:100340000E944C327B018C01C601B501A2019101D2
:100350000E944C325B016C01C401B3010E944C321B
:100360009B01AC01EA0CFB1C0C1D1D1D69A47AA4A9
:100370008BA49CA4C401AA27BB27E80EF91E0A1F60
:100380001B1FEA14FB040C051D0520F4205030400F
:100390004F4F5F4FC801AA27BB27820F931FA41F8F
:1003A000B51F8D8F9E8FAF8FB8A38701FF24EE24DA
:1003B00029A53AA54BA55CA540705070E20EF31E2E
:1003C000041F151FE98EFA8E0B8F1C8FDE2CAA8C52
:1003D000CB8C6C8C8D8B8E8D8E8B8F8D8F8B88A123
:1003E000888F2D853E854F85588969A17AA18BA17B
:1003F0009CA10E944C327B018C012D813E814F815A
:1004000058856DA17EA18FA198A50E944C32E60E61
:10041000F71E081F191F6D897E898F89988D6E0DB3
:100420007F1D801F911F6D8B7E8B8F8B988F7E8998
:100430002D2D3A2D4C2D562D8F89988DAC96E2E1BD
:100440000C94D0320F93DF93CF93CDB7DEB7609784
:100450000FB6F894DEBF0FBECDBF002309F459C01C
:1004600029833A834B835C836D837E838F83988754
:10047000E0E2E01B2D813E814F8158851E16BCF0C5
:100480001D861E861F86188A8E2F992787FD9095B8
:10049000909581959F4F04C0569547953795279520
:1004A0008A95D2F729873A874B875C872AC0CA0189
:1004B000B901002E04C096958795779567950A94A3
:1004C000D2F76D877E878F87988BDA01C90104C0C8
:1004D000880F991FAA1FBB1FEA95D2F729813A817D
:1004E0004B815C8104C056954795379527950A95B1
:1004F000D2F7822B932BA42BB52B89879A87AB87B6
:10050000BC8729853A854B855C856D857E858F8581
:10051000988960960FB6F894DEBF0FBECDBFCF911D
:10052000DF910F9108950F93DF93CF93CDB7DEB78F
:1005300060970FB6F894DEBF0FBECDBF002309F45D
:1005400059C029833A834B835C836D837E838F8379
:100550009887E0E2E01B29813A814B815C811E167D
:10056000BCF019861A861B861C868E2F992787FD5C
:100570009095909581959F4F04C0220F331F441F83
:10058000551F8A95D2F72D873E874F87588B2AC0F3
:10059000CA01B901002E04C0660F771F881F991F7A
:1005A0000A94D2F769877A878B879C87DA01C90119
:1005B00004C0B695A79597958795EA95D2F72D81B2
:1005C0003E814F81588504C0220F331F441F551FA1
:1005D0000A95D2F7822B932BA42BB52B8D879E8760
:1005E000AF87B88B29853A854B855C856D857E857F
:1005F0008F85988960960FB6F894DEBF0FBECDBF89
:10060000CF91DF910F91089580918A010895B2D41E
:100610000E94A12B8FEF93EDA0E381509040A0406A
:10062000E1F700C00000D1D4F5CF84B7877F84BF45
:1006300088E10FB6F89480936000109260000FBEBE
:1006400020E090E80FB6F894909361002093610049
:100650000FBE1092C8008093C90086E08093CA0044
:10066000539A5A9A87E690E09093CD008093CC00FD
:100670008BE791E09093E9048093E8040BD40C9409
:10068000382F10928A010895089583E061E846E3C7
:100690000E94752D84E060E846E30C94752D8091EE
:1006A000DF048E3F81F08F3F21F58091DE0481329F
:1006B00001F58091E800877F8093E80081E08093D6
:1006C0008A010C949F2D8091DE04813A91F48091EF
:1006D000E800877F8093E8001092F1008091E800A5
:1006E000982F9E7F9093E8008F778093E8000C947A
:1006F0009F2D08958091DD04843009F0E8C0809337
:10070000E9009091E80095FFB8C08093E9008AEB7A
:1007100094E06FE070E044E053E00E943A2E809154
:100720008A01882309F0A9C08091BA049091BB0482
:10073000A091BC04B091BD04853523E5920722E465
:10074000A20723E4B20789F48091C704882369F4DF
:100750008091C60490E08F719070009731F46091A1
:10076000C804662311F0613170F08091EB00806263
:100770008093EB0083E08093E9008091EB0080623E
:100780008093EB007AC089EC94E070E044E053E0A1
:100790000E943A2E80918A01882309F06EC08091D0
:1007A000E800982F9B7F9093E8008F778093E80074
:1007B0008091C60487FF03C083E08093E90026D2BE
:1007C00091E0982790930C012091BE043091BF04D2
:1007D0004091C0045091C10420930401309305015D
:1007E00040930601509307012091C2043091C30445
:1007F0004091C4045091C50420930801309309012D
:1008000040930A0150930B01913051F421153105A9
:100810004105510529F08091EB0080628093EB0047
:1008200084E08093E90004C080918A01882329F53F
:100830008091EB0085FDF8CF83E08093E90004C050
:1008400080918A018823C9F48091EB0085FDF8CF5F
:1008500080E091E06DE070E044E053E00E94EF2D15
:1008600080918A01882349F48091E800982F9E7F27
:100870009093E8008F778093E80080918A01882325
:1008800031F180E18093EA001092EA0088E08093E1
:10089000EA001092EA0084E08093E9008091EB0086
:1008A00080618093EB008091EB0088608093EB0087
:1008B00083E08093E9008091EB0080618093EB00FE
:1008C0008091EB0088608093EB0010928A0108957C
:1008D00011DF0E944A30FCCFA8DE3E98469A000005
:1008E00000000000369B0DC000D088EC90E0EDB712
:1008F000FEB7928381830E9449330F900F90E8DF07
:100900000CC000D08CEA90E0EDB7FEB792838183F3
:100910000E9449330F900F907ADE80E090E00895B6
:10092000923029F0933041F09130E9F417C020E281
:1009300030E0E7EFF0E01BC0813041F0813018F08B
:10094000823089F406C0E7E1F1E005C0EBE1F1E0B7
:1009500002C0E5E3F1E0249130E009C022E130E09B
:10096000E5EEF0E004C020E030E0E0E0F0E0DA01A5
:100970001196FC93EE93C9010895AF92BF92CF9266
:10098000DF92EF92FF920F931F93DF93CF93CDB738
:10099000DEB7CDB6DEB6ADB6BEB62091CC040091C2
:1009A000CD048091CA0490E083709070009721F488
:1009B0008091CB04882361F080913301807F856032
:1009C0008093330184E280933D0110923E0143C045
:1009D000922F80E010E0082B192B780105321105C9
:1009E00018F084E2E82EF12C8DE091E0B70144E0AC
:1009F00053E00E94EF2DB8016E197F098DB79EB7A5
:100A0000861B970B0FB6F8949EBF0FBE8DBF019645
:100A100044E053E00E94EF2D8091E800982F9E7FE4
:100A20009093E8008F778093E80000E010E08091D9
:100A3000C2049091C304A091C404B091C5048E195E
:100A40009F09A00BB10B8093C2049093C304A093A1
:100A5000C404B093C5048A2D9B2D0FB6F8949EBF95
:100A60000FBE8DBF0FB6F894DEBE0FBECDBECF91C8
:100A7000DF911F910F91FF90EF90DF90CF90BF908B
:100A8000AF900895EF92FF920F931F93DF93CF9350
:100A9000CDB7DEB70DB71EB7E090CD04FE2C8E2D7E
:100AA000833110F092E1F92E81E391E06F2D70E037
:100AB00044E053E00E94EF2D6E2D70E06F19710934
:100AC0008DB79EB7861B970B0FB6F8949EBF0FBECF
:100AD0008DBF019644E053E00E94EF2D8091E80025
:100AE000982F9E7F9093E8008F778093E800809105
:100AF000C2049091C304A091C404B091C5048F199D
:100B00009109A109B1098093C2049093C304A093F1
:100B1000C404B093C5040FB6F8941EBF0FBE0DBF3A
:100B2000CF91DF911F910F91FF90EF900895DF9289
:100B3000EF92FF920F931F93DF93CF9300D000D0DB
:100B400000D0CDB7DEB7D82EFE0133968091CB040E
:100B500083838091CC0482838091CD0481838091B2
:100B6000CE048B838091D0048A838091D1048983C1
:100B7000EB80FC800D811E8110D3E616F706080776
:100B8000190760F080913301807F85608093330185
:100B900081E280933D0110923E012AC049815A8131
:100BA000DD2021F0C801B701C2D303C0C801B701DD
:100BB0003BD329813A8140E050E069E0220F331FA6
:100BC000441F551F6A95D1F78091C2049091C304C8
:100BD000A091C404B091C504821B930BA40BB50B68
:100BE0008093C2049093C304A093C404B093C5043B
:100BF00026960FB6F894DEBF0FBECDBFCF91DF9122
:100C00001F910F91FF90EF90DF9008959091330125
:100C1000907F9093330110923D0110923E0180919C
:100C2000C9048E3109F483C08F3170F48330F1F040
:100C3000843020F4882309F47AC082C08231A1F084
:100C40008D3109F07DC057C0883209F46DC08932FA
:100C500020F4853209F074C00BC08A3209F462C0F6
:100C60008F3209F06DC063C088DE73C00BDF71C0C6
:100C700094D26150704080409040292F3327442700
:100C800055272093F1009C01442755272093F1001C
:100C9000272F382F492F55272093F1006093F1001B
:100CA0001092F1001092F10082E08093F100109216
:100CB000F10080918A01882309F04BC08091E800FF
:100CC000982F9E7F9093E8008F778093E800809123
:100CD000C2049091C304A091C404B091C5040897C4
:100CE000A109B1098093C2049093C304A093C404E2
:100CF000B093C5042EC08091CA0482FD05C09560E2
:100D00009093330184E223C096D3882381F48091A9
:100D10003301807F84608093330110923D011092F3
:100D20003E0117C080E001C081E001DF12C01092D7
:100D3000C2041092C3041092C4041092C50409C0E6
:100D400080913301807F85608093330180E28093BE
:100D50003D01909133019F7081E009F080E008959A
:100D6000CF93DF93EC018091E80085FD0DC0809169
:100D7000E800982F9E7F9093E8008F778093E8009B
:100D80000E94C42D8823A9F588818093F100898170
:100D90008093F1008A818093F1008B818093F10030
:100DA0008C818093F1008D818093F1008E818093FE
:100DB000F1008F818093F10088858093F10089850F
:100DC0008093F1008A858093F1008B858093F100F8
:100DD0008C858093F1008D858093F1008E858093C2
:100DE000F1008F858093F10080918A0191E089273D
:100DF00001C080E0DF91CF910895CF93DF93EC01A4
:100E00008091E80085FD0DC08091E800982F9B7FC0
:100E10009093E8008F778093E8000E94C42D882388
:100E200099F58091F10088838091F1008983809108
:100E3000F1008A838091F1008B838091F1008C8393
:100E40008091F1008D838091F1008E838091F1007B
:100E50008F838091F10088878091F100898780914C
:100E6000F1008A878091F1008B878091F1008C8757
:100E70008091F1008D878091F1008E878091F10043
:100E80008F8720E130E002C020E030E0C901DF912F
:100E9000CF9108950F931F93DF93CF93CDB7DEB714
:100EA000E1970FB6F894DEBF0FBECDBF07E512E0A5
:100EB00009C000D0EDB7FEB7128301830E94493309
:100EC0000F900F9090D58823A1F385E99AE06CE20A
:100ED0007CE043EC5DE028E73FE000E00E945F112A
:100EE000009789F485E99AE06CE27CE043EC5DE0F0
:100EF00028E73FE00FEF0E945F11009721F400D038
:100F00008CE392E024C00E94371F9093BD01809330
:100F1000BC01009721F400D080E292E018C063E4A5
:100F200071E08E010F5F1F4FA8010E94A42A8091DB
:100F3000BC019091BD01B8010E9453299093BF015B
:100F40008093BE01009759F400D080E092E0EDB7A5
:100F5000FEB7928381830E9449330F900F90E196F0
:100F60000FB6F894DEBF0FBECDBFCF91DF911F91BA
:100F70000F910895DF93CF93CDB7DEB7E1970FB60A
:100F8000F894DEBF0FBECDBF8091BE019091BF012E
:100F900065E471E0AE014F5F5F4F0E943D2B8823F7
:100FA00059F400D08AEE91E0EDB7FEB792838183C9
:100FB0000E9449330F900F90E1960FB6F894DEBF70
:100FC0000FBECDBFCF91DF9108958F929F92AF92C8
:100FD000BF92CF92DF92EF92FF920F931F93DF9316
:100FE000CF93CDB7DEB7E9970FB6F894DEBF0FBE4B
:100FF000CDBF00D08DED91E0EDB7FEB79283818338
:101000000E944933C090BC01D090BD01E090BE0168
:10101000F090BF010F900F908E01075F1F4F12C01D
:10102000C80165E471E00E940633009759F4C701D6
:101030000E942C2BC601B8010E9418237C01009746
:1010400099F406C0C701B8010E949A29882341F784
:1010500000D088EC91E0EDB7FEB7928381830E94C7
:1010600049330F900F9086C08E010F5F1F4FC7014D
:10107000B80148E050E00E94622388309105B9F33E
:1010800000D080E591E0EDB7FEB7928381830E94A6
:1010900037330F900F9091E0C92ED12C5E01089448
:1010A000A11CB11C8BE5882E81E0982EC6010E9400
:1010B000DC2B0E94BE2BBC0180E090E00E945B31E3
:1010C0002AE037ED43E250E40E94E93120E030ECC1
:1010D0004FE754E40E94C2309B01AC010E945E3095
:1010E000A5010E94F62B8C0100D000D0EDB7FEB711
:1010F00092828182B482A3820E9437330F900F9034
:101100000F900F90C701B501A8010E942B268017F0
:10111000910761F000D080EB91E0EDB7FEB79283CC
:1011200081830E9449330F900F9008C00894C11C1E
:10113000D11CF5E0CF16D10409F0B8CF81E691E0DB
:101140000E946933C70163E671E041E050E00E940C
:101150002B268130910559F000D088E991E0EDB758
:10116000FEB7928381830E9449330F900F90C7018D
:101170000E945C23E9960FB6F894DEBF0FBECDBF88
:10118000CF91DF911F910F91FF90EF90DF90CF9063
:10119000BF90AF909F908F900895EF92FF920F9322
:1011A0001F93E0909B01F0909C0100919D01109194
:1011B0009E01E114F1040105110579F58FE991E033
:1011C00054D7882361F400D08BE791E0EDB7FEB7E8
:1011D000928381830E9449330F900F901EC020910B
:1011E000B0013091B1014091B2015091B3016091D1
:1011F000B4017091B5018091B6019091B70109E0F9
:1012000021D9E22EF32E042F152FE0929B01F092AC
:101210009C0100939D0110939E01B701C8011F918D
:101220000F91FF90EF9008956F927F928F929F920F
:10123000AF92BF92CF92DF92EF92FF920F931F93E4
:10124000CF93DF935B016C01EA012DB73EB72850C5
:1012500030400FB6F8943EBF0FBE2DBFEDB7FEB7BE
:10126000319680E791E0ADB7BEB712969C938E930E
:101270001197A282B382C482D582578346830E948B
:1012800049332DB73EB7285F3F4F0FB6F8943EBFA6
:101290000FBE2DBF0E94C42D8823D1F53501460114
:1012A000A9E0660C771C881C991CAA95D1F721C06F
:1012B000640153019301A60160E070E080E090E0DA
:1012C0000BE811E0E12CF2E0FF2EEDEFCE2EE6E090
:1012D000DE2EAA24BB240CD680918A0120E032E0C5
:1012E00040E050E0620E731E841E951E882381F438
:1012F00021972097E9F68091E80085FD09C080914B
:10130000E800982F9B7F9093E8008F778093E80008
:10131000DF91CF911F910F91FF90EF90DF90CF90D1
:10132000BF90AF909F908F907F906F9008954F9255
:101330005F926F927F928F929F92AF92BF92CF9265
:10134000DF92EF92FF920F931F93CF93DF935B0196
:101350006C01EA018DB79EB708970FB6F8949EBF4F
:101360000FBE8DBFEDB7FEB7319685E691E0ADB704
:10137000BEB712969C938E931197A282B382C482B9
:10138000D582578346830E9449338DB79EB708960E
:101390000FB6F8949EBF0FBE8DBF0E94C42D882348
:1013A000C9F525013601A9E0440C551C661C771CC3
:1013B000AA95D1F720C0630152019201A60160E015
:1013C00070E080E090E00BE811E0F0E1EF2EF12C0E
:1013D000C12CE2E0DE2EB0EBAB2EB6E0BB2E8824B3
:1013E00099243AD2219780E092E0A0E0B0E0480E44
:1013F000591E6A1E7B1E2097F1F68091E80085FD3C
:1014000009C08091E800982F9E7F9093E8008F7725
:101410008093E800DF91CF911F910F91FF90EF90A3
:10142000DF90CF90BF90AF909F908F907F906F9004
:101430005F904F90089581E008958EBD0DB407FE32
:10144000FDCF8DB58F778DBD08958FEF8EBD0DB417
:1014500007FEFDCF8DB58F778DBD8EB508951F9397
:10146000DF93CF9300D000D0CDB7DEB7182F4C83D9
:101470005B836A837983E9DF812F8064DEDF798192
:10148000872FDBDF6A81862FD8DF5B81852FD5DF51
:101490004C81842FD2DF112319F0183039F404C0A5
:1014A00085E9CBDF1AE004C087E8FBCF8FEFF9CFE7
:1014B000CCDF8F3F11F41150D9F70F900F900F90A0
:1014C0000F90CF91DF911F91089581E0089580E002
:1014D0000895EF92FF920F931F938091C10188238B
:1014E000E1F42091C2013091C3014091C4015091B7
:1014F000C5016091C6017091C7018091C8019091AA
:10150000C9010AEC11E0E12CE2E0FE2E3CD3882375
:1015100031F081E08093C10103C081E001C080E02F
:101520001F910F91FF90EF9008952F923F924F924D
:101530005F926F927F928F929F92AF92BF92CF9263
:10154000DF92EF92FF920F931F93DF93CF93CDB76C
:10155000DEB72D970FB6F894DEBF0FBECDBF29833F
:101560003A834B835C836D837E838F839887680186
:10157000270152C129803A80AFEFEA2EA1E0FA2E6E
:101580002E203F20910169806218E1E0F980F61475
:1015900008F0E0E09A81931B81E02A81291708F086
:1015A00080E0192F1E1B21E0911708F020E0822B0C
:1015B0009B81B92EB81A81E09B1508F080E09C81D0
:1015C000A92EA81A81E09A1508F080E09D81992E35
:1015D000981A81E0991508F080E09E81892E881A7A
:1015E00081E0981508F080E09F81792E781A81E0DB
:1015F000971508F080E03885381B398780E092E045
:10160000821993099B878A874816590610F45B86CE
:101610004A868091C2018615F1F48091C301811739
:10162000D1F48091C4018B15B1F48091C5018A1564
:1016300091F48091C601891571F48091C7018815D4
:1016400051F48091C801871531F48091C9019985C1
:10165000891709F463C03DDF882309F4E3C02898A3
:101660008091C00182FF0FC0262D312F4B2D5A2DA6
:10167000692D782D872D998509E00E942202BA01F3
:10168000422F532F04C0462D512F6B2D7A2D81E10F
:10169000E6DE882311F0289AC5C0EA84FB84D5DEF3
:1016A0008E3FE9F7FB86EA86FAECEF2EF1E0FF2E9B
:1016B000812F0A851B859701E82E2C873D87C5DE83
:1016C0002C853D85D9018D939D01B3E02A3C3B07D4
:1016D000A1F71B870A876092C201E092C301B09212
:1016E000C401A092C5019092C6018092C701709278
:1016F000C801E985E093C901910126533E4FC60117
:10170000B9014A855B850E94EB32EA84FB84CE0CEA
:10171000DF1C9BDE9ADE289A98DE0DC091012653CD
:101720003E4FC601B9014A855B850E94EB322A858E
:101730003B85C20ED31E8A859B85481A590A9C0197
:1017400040E050E060E070E0CB01A980A20E11E023
:10175000A981AA1608F010E0FA81F30FE1E0BA813E
:10176000FB1708F0E0E0B12EBF0EA1E0BF1608F0B5
:10177000A0E0EA2BFB81F40F01E0EB80FE1508F0FE
:1017800000E0EE2EEF0EE1E0EF1608F0E0E00E2BA9
:10179000EC81E50F11E0FC80EF1508F010E00E0F72
:1017A000F1E00E1708F0F0E01F2B9D80960EB1E0DF
:1017B000AD819A1608F0B0E0190DF1E0191508F0A6
:1017C000F0E0BF2B8E80870E99249394EE818E16C5
:1017D00008F099247B2E780CA1E0781408F0A0E0A2
:1017E0009A2AAF81A80F88248394FF81AF1708F04D
:1017F0008824F92DFA0F99249394FA1708F0992464
:1018000089288885890FA982BA82EB820C831D837F
:101810007E82FF83880E88864114510409F0AACE87
:1018200081E001C080E02D960FB6F894DEBF0FBEB8
:10183000CDBFCF91DF911F910F91FF90EF90DF907F
:10184000CF90BF90AF909F908F907F906F905F9060
:101850004F903F902F9008952F923F924F925F921A
:101860006F927F928F929F92AF92BF92CF92DF92B0
:10187000EF92FF920F931F93DF93CF93CDB7DEB715
:1018800060970FB6F894DEBF0FBECDBF2901498324
:101890005A836B83272E382E9C831E830D8337013A
:1018A0000115110509F483C0E114F10409F47FC0A6
:1018B000CE14DF0408F47BC0A114B10409F477C08E
:1018C000222733272E193F09388B2F87CE18DF08A0
:1018D000970140E050E060E070E0CB01EF82388794
:1018E00049875A876B877C878D879E8792014981BC
:1018F0005A816B81722D832D9C810D811E81730114
:1019000014DE882309F453C08D819E8182012981D0
:101910003A814B81522D632D7C817401F50109952B
:10192000882309F446C04F855889C40ED51EC601C8
:10193000860D971D86159705E0F16F81640D81E096
:10194000641508F080E09885950D21E0951508F064
:1019500020E0582E590E81E0591608F080E0822BC5
:101960005981850F51E07981871708F050E09A81FD
:10197000590F41E0591708F040E02B81420F31E048
:10198000421708F030E0320D21E0321508F020E077
:10199000230D91E0231508F090E0462E89835A83A9
:1019A0004B83232E322E3C81390F3C839FCF80E026
:1019B00001C081E060960FB6F894DEBF0FBECDBFC8
:1019C000CF91DF911F910F91FF90EF90DF90CF901B
:1019D000BF90AF909F908F907F906F905F904F904F
:1019E0003F902F900895EF92FF920F931F93CF9304
:1019F000DF93229A219A209A2398289A83E58CBD16
:101A00008DB58E7F8DBD1092C0015FDD882309F4F6
:101A1000B1C010E01ADD1F5F1A30E1F72898C0E06E
:101A2000D0E080E040E050E0BA0119DD182F8130AD
:101A300039F081E0CF3FD80709F46EC02196F1CF8D
:101A400088E04AEA51E060E070E009DD82FD0FC005
:101A5000FCDCFBDCFADC80FF8DC0F7DC8A3A09F0A5
:101A600089C082E08093C001C0E0D0E00FC087E36E
:101A700040E050E0BA01F3DC89E240E050E0BA0116
:101A8000EEDC82FDF1CF1093C001EECF8091C0015A
:101A900090E09C012370307021153105A1F081FD8B
:101AA00004C0EE24FF24870105C0E12CF12C012D98
:101AB00080E4182F87E340E050E0BA01D0DC89E2EF
:101AC000B801A70104C081E040E050E0BA01C7DCE2
:101AD00080FF06C08FE7CF3FD807F1F02196D6CF21
:101AE0001091C00111FF10C08AE340E050E0BA013C
:101AF000B6DC882389F4A9DC86FF03C01460109348
:101B0000C001A3DCA2DCA1DC80E140E052E060E0A7
:101B100070E0A5DC882311F0289A2CC0289A8CB597
:101B20008C7F8CBD8DB581608DBD8FEF8093C201A0
:101B30008093C3018093C4018093C5018093C60143
:101B40008093C7018093C8018093C90181E080938D
:101B5000C10120E030E040E050E060E070E080E073
:101B600090E00AEC11E0E12CB2E0FB2EDEDC91E02B
:101B7000882309F490E0892FDF91CF911F910F9175
:101B8000FF90EF9008952F923F924F925F926F9245
:101B90007F928F929F92AF92BF92CF92DF92EF92FD
:101BA000FF920F931F93DF93CF93CDB7DEB72C97A0
:101BB0000FB6F894DEBF0FBECDBF29833A834B83A7
:101BC0005C836D837E838F8398871A87098767017B
:101BD0007EDC882309F46BC16FC129803A80FFEF56
:101BE000EF2EF1E0FF2E2E203F2091015980521858
:101BF000E1E0F980F51408F0E0E09A81931B81E0C0
:101C00002A81291708F080E0B92EBE1A21E09B1521
:101C100008F020E0822B9B81A92EA81A81E09A155A
:101C200008F080E09C81992E981A81E0991508F0BF
:101C300080E09D81892E881A81E0981508F080E067
:101C40009E81792E781A81E0971508F080E09F81B7
:101C5000692E681A81E0961508F080E04884481AD9
:101C600080E092E0821993099C878B87C816D90679
:101C700010F4DC86CB868091C2018515E1F4809159
:101C8000C3018B15C1F48091C4018A15A1F4809120
:101C9000C501891581F48091C601881561F4809190
:101CA000C701871541F48091C801861521F4809100
:101CB000C901841571F10DDC882309F4FDC02114DC
:101CC000310431F4AB85BC85E2E0A030BE0789F079
:101CD000252D3B2D4A2D592D682D772D862D942DA0
:101CE0000AEC11E0E12CE2E0FE2E1FDC882309F46F
:101CF000E3C05092C201B092C301A092C40190927D
:101D0000C5018092C6017092C7016092C8014092DD
:101D1000C90129853A8581E02A3C380791F0910173
:101D200026533E4FC90169857A854B855C850E94A3
:101D3000EB321092C101AB85BC85CA16DB0609F4F3
:101D4000BDC028988091C00182FF0FC0252D3B2D7A
:101D50004A2D592D682D772D862D942D09E00E944E
:101D60002202BA01422F532F04C0452D5B2D6A2D4C
:101D7000792D88E174DB882311F0289A9DC08EEFBD
:101D80005CDB0AEC11E0AB84BC84F80181918F012B
:101D900054DBF3E00A3C1F07C1F7BC86AB868FEF2C
:101DA0004CDB8FEF4ADB0B851C854FDB8F3FE9F760
:101DB0001C870B874ADB289AE984FA842B853C85AB
:101DC000E20EF31EFA86E98640E050E060E070E043
:101DD000CB018980820E11E0A9818A1608F010E0FB
:101DE000FA81F30FE1E0BA81FB1708F0E0E0912EF1
:101DF0009F0EA1E09F1608F0A0E0EA2B1B81140FB4
:101E0000F1E0EB801E1508F0F0E0AE2EA10EE1E04F
:101E1000A11608F0E0E0FE2BEC81E50F01E0FC806C
:101E2000EF1508F000E0BF2EBE0EF1E0BE1608F080
:101E3000F0E00F2B1D81160FB1E0AD811A1708F0ED
:101E4000B0E0010FF1E0011708F0F0E0BF2B7E8059
:101E5000770E11E0EE817E1608F010E06B2E670C15
:101E6000A1E0671408F0A0E01A2BAF81A80F772437
:101E70007394FF81AF1708F07724F12FFA0F11E068
:101E8000FA1708F010E0712A8885890F89829A82F2
:101E9000AB82BC820D836E82FF83780E7886EB84E2
:101EA000FC84CE18DF08FF24F394F092C101C11422
:101EB000D10409F092CE02C080E001C081E02C96EE
:101EC0000FB6F894DEBF0FBECDBFCF91DF911F914B
:101ED0000F91FF90EF90DF90CF90BF90AF909F90C9
:101EE0008F907F906F905F904F903F902F900895CC
:101EF0002F923F924F925F926F927F928F929F921A
:101F0000AF92BF92CF92DF92EF92FF920F931F9307
:101F1000DF93CF93CDB7DEB727970FB6F894DEBF28
:101F20000FBECDBF4901252E362E472E582E998340
:101F30001B830A833701DD82CC820115110509F468
:101F40007AC0C114D10409F476C0DD24D394E1141D
:101F5000F10409F466C0DD2464C08A819B81840198
:101F60002C2D322D432D542D652D79817501EC8159
:101F7000FD8109959F838E83009709F45AC0DD2067
:101F800021F46816790608F456C094014C2D522DA0
:101F9000632D742D852D99810A811B81EE80FF8030
:101FA000F2DD882309F447C0EE80FF809701E82D19
:101FB000EE0DF1E0E81508F0F0E0992D930F21E027
:101FC000991508F020E09F2E990E81E0991608F0EF
:101FD00080E0822B8C0D51E08C1508F050E0520D02
:101FE00041E0521508F040E0430D31E0431508F0A0
:101FF00030E0340D21E0341508F020E0250D91E0AB
:10200000251508F090E08E2EC82E252E342E432E56
:10201000522EF981F90FF9838E819F81681A790A0E
:1020200001C0C42EDD2009F098CF6114710409F0BD
:1020300094CF81E001C080E027960FB6F894DEBF10
:102040000FBECDBFCF91DF911F910F91FF90EF9009
:10205000DF90CF90BF90AF909F908F907F906F90C8
:102060005F904F903F902F900895BF92CF92DF9254
:10207000EF92FF920F931F93CF93DF93EC010097A2
:1020800009F412C122DA882309F40EC17E01EC2F73
:10209000FF2D8DE1DF011D928A95E9F728988AE0EE
:1020A00040E050E0BA01DBD9882309F05CC0CDD90B
:1020B0008E3FE9F7FE01DC2EEC2EFF2E00E610E04D
:1020C000C4D99E2D9D19983028F4933090F499230B
:1020D00059F00CC09D3018F4993080F40DC09D303B
:1020E00029F19E3079F526C088832CC0D7018C93C6
:1020F00029C0F701818326C08A8724C090E0A0E030
:10210000B0E0002E04C0880F991FAA1FBB1F0A94BD
:10211000D2F72B853C854D855E85282B392B4A2BA4
:102120005B2B2B873C874D875E870CC08295807F19
:102130008F8708C0282F22952F709F85922B9F870D
:102140008F70888B0894E11CF11C08501040FFEF41
:10215000003D1F0709F0B4CF89E040E050E0BA012C
:102160007ED9882311F0289A9FC06FD98E3FE9F756
:1021700010E0EE24FF24DD24BB24CC24C39465D9D5
:102180001E3079F490E086FDC98E85FDCA8E84FDEF
:10219000CB8E8C70907095958795959587958C8F43
:1021A0007CC09091C00191FF27C0173029F01730F3
:1021B00050F01A3040F401C08F733E2D2227E82ED4
:1021C000FF24E22AF32A193009F067C00894E11CC1
:1021D000F11C970140E050E060E070E080E090E0AA
:1021E00003E10E949302298B3A8B4B8B5C8B6D8BA6
:1021F0007E8B8F8B988F51C01730E1F0183030F400
:10220000153061F0163009F048C00CC0193029F1C2
:102210001930C0F01A3009F040C024C09FE0B92E38
:10222000B8223BC0E82EFF2423E0E222FF24FE2C4C
:10223000EE2433C090E0E82AF92AEE0CFF1CEE0CE5
:10224000FF1C2BC0829586958695837090E0E82AC6
:10225000F92A0894E11CF11C20C0A3E0DA2ED82250
:10226000DD0C1BC0881F8827881FD82A970140E0F3
:1022700050E08B2D90E002968D0D911D04C0220F31
:10228000331F441F551F8A95D2F7298B3A8B4B8BEE
:102290005C8B1D8A1E8A1F8A188E1F5F123109F0FF
:1022A0006ECF289A81E001C080E0DF91CF911F912D
:1022B0000F91FF90EF90DF90CF90BF9008954F92D5
:1022C0005F926F927F928F929F92AF92BF92DF92B6
:1022D000EF92FF920F931F93DF93CF93CDB7DEB7AB
:1022E00060970FB6F894DEBF0FBECDBF5C014B0107
:1022F0003A012901D02E009709F4A9C06115710592
:1023000009F4A5C004300CF0A2C0D7FC23C0ED2D09
:10231000FF27E7FDF095A4E0EE0FFF1FAA95E1F778
:10232000E254FE4F9F2F990F990B9F01492F592F70
:10233000692F792F892F8E010F5F1F4FE0E1EE2E5D
:10234000F12CF5010995882309F481C08D8188233A
:1023500009F47DC08091D203882309F078C0EAECAB
:10236000F3E081E1DF011D928A95E9F7B092CB039A
:10237000A092CA039092CD038092CC037092CF03B7
:102380006092CE035092D1034092D003D7FC5AC042
:102390008D818093D2038A8590E0A0E0B0E0BA2FCF
:1023A000A92F982F88272B8530E040E050E0A90125
:1023B00033272227822B932BA42BB52B298530E0A2
:1023C00040E050E0822B932BA42BB52B2C8530E0E2
:1023D00040E050E0522F442733272227822B932BB3
:1023E000A42BB52B81879287A387B4878E8590E035
:1023F000A0E0B0E0BA2FA92F982F88272F8530E0D2
:1024000040E050E0A90133272227822B932BA42BF5
:10241000B52B2D8530E040E050E0822B932BA42B90
:10242000B52B288930E040E050E0522F4427332775
:102430002227822B932BA42BB52B85879687A787E2
:10244000B08B03C08FEF8093D2039F0102C020E0C6
:1024500030E0C90160960FB6F894DEBF0FBECDBF65
:10246000CF91DF911F910F91FF90EF90DF90BF9080
:10247000AF909F908F907F906F905F904F90089556
:102480008F929F92AF92BF92CF92DF92EF92FF9284
:102490000F931F93DF93CF9300D000D000D0CDB720
:1024A000DEB7DC01009709F43EC1423051056105F9
:1024B000710508F438C1ED91FC91119720851A96A9
:1024C000DC901A971B96CC901B971C96BC901C977F
:1024D0001D96AC901D971E968C911E971F96EC90A2
:1024E0001F975096FC90509751969C9151972B3086
:1024F00009F08EC08A019B01B2E0000F111F221F5C
:10250000331FBA95D1F740E050E0BA01D00EB1E0E8
:10251000D01608F0B0E0C10EA1E0C11608F0A0E0AE
:102520008B2E8C0CB1E08C1408F0B0E0AB2BB20E0B
:10253000B1E0B21608F0B0E09A2E9B0CA1E09B141B
:1025400008F0A0E0BA2BA30EA1E0A31608F0A0E0CB
:10255000BB2EBA0CB1E0BA1408F0B0E0AB2BB1E07E
:10256000841708F0B0E0CA2EC80EA1E0C81608F023
:10257000A0E0BA2B81E0E51608F080E0BE0DA1E0F6
:10258000BE1508F0A0E08A2BA1E0F61608F0A0E046
:102590008F0D21E08F1508F020E0A22B0190F08133
:1025A000E02D2D2D382D492D5B2D6C2D7B2F9A0F75
:1025B0008E010D5F1F4FA4E0EA2EF12C09958823B0
:1025C00009F4B1C02B813C814D815E81211531051B
:1025D0004105510509F4AAC0273F8FEF38078FEF57
:1025E00048078FE0580709F49EC0DA01C901805FEF
:1025F0009F4FAF4FBF4087309105A105B10508F44B
:1026000092C0DA01C901885F9F4FAF4FBF4086C0BB
:102610008A019B01000F111F221F331F40E050E071
:10262000BA01D00EB1E0D01608F0B0E0C10EA1E0C2
:10263000C11608F0A0E08B2E8C0CB1E08C1408F0D1
:10264000B0E0AB2BB20EB1E0B21608F0B0E09A2EBB
:102650009B0CA1E09B1408F0A0E0BA2BA30EA1E014
:10266000A31608F0A0E0BB2EBA0CB1E0BA1408F033
:10267000B0E0AB2BB1E0841708F0B0E0CA2EC80E72
:10268000A1E0C81608F0A0E0BA2B81E0E51608F03A
:1026900080E0BE0DA1E0BE1508F0A0E08A2BA1E00D
:1026A000F61608F0A0E08F0D21E08F1508F020E06D
:1026B000A22B0190F081E02D2D2D382D492D5B2D81
:1026C0006C2D7B2F9A0F8E010F5F1F4FA2E0EA2E19
:1026D000F12C0995882339F129813A8140E050E0B5
:1026E000211531054105510509F1273F8FEF3807C5
:1026F00080E0480780E05807B1F0DA01C901805F47
:102700009F4FA040B04087309105A105B10558F01A
:10271000DA01C901885F9F4FA040B0408830910521
:10272000A105B10518F420E030E0A901B901CA0102
:1027300026960FB6F894DEBF0FBECDBFCF91DF91C6
:102740001F910F91FF90EF90DF90CF90BF90AF90CF
:102750009F908F9008952F923F924F925F926F9229
:102760007F928F929F92AF92BF92CF92DF92EF9221
:10277000FF920F931F93DF93CF93CDB7DEB7609790
:102780000FB6F894DEBF0FBECDBF6C014A015B01EE
:10279000009709F493C1423051056105710508F4B1
:1027A0008DC1DC011A96BC91BC87FC01F385FD87C5
:1027B000DC011C96BC91BE87FC01F585FF87DC011E
:1027C0001E96BC91BF83FC01F785F887DC0150960B
:1027D000BC91B987FC01F189F88BDC01ED91FC918A
:1027E000119780858B3009F0BEC0360112E0880C4D
:1027F000991CAA1CBB1C1A95D1F7CC24DD247601A8
:102800005C84580C21E0581408F020E09D85990D57
:1028100081E0991508F080E0422E490E21E049162A
:1028200008F020E0822B2E852A0D91E02A1508F071
:1028300090E0382E320E81E0321608F080E0982BBE
:102840002F852B0D81E02B1508F080E0292E220E1C
:1028500091E0221608F090E0892B91E0BF81BC1531
:1028600008F090E0EF81E80FEA8781E0FF81EF1741
:1028700008F080E0982B81E028852D1508F080E095
:102880003885390F3B8791E0A8853A1708F090E02A
:10289000892B91E0B985BE1508F090E0C984C80E77
:1028A00081E0E985CE1608F080E0D92ED82AF88993
:1028B000DF0ED301ED91FC910190F081E02D252DEB
:1028C000342D432D522D6A857B85C6018E010D5F07
:1028D0001F4FB4E0EB2EF12C0995882309F4EEC0CC
:1028E0008B809C80AD80BE8081149104A104B104D2
:1028F00009F4E2C0D501C401805F9F4FAF4FBF40D4
:1029000088309105A105B10508F4D8C0D501C401EE
:10291000885F9F4FAF4FBF4088309105A105B1053B
:1029200018F48824992454011B821C821D821E8263
:10293000D301ED91FC910480F581E02D252D342DFE
:10294000432D522D6A857B85C6018E010D5F1F4F79
:10295000A4E0EA2EF12C099581149104A104B1049C
:1029600009F044CFA9C09A01AB015601220F331FD1
:10297000441F551F60E070E0CB016C84620EA1E043
:10298000621608F0A0E0FD85F30FE1E0F31708F010
:10299000E0E05A2E5F0EA1E05F1608F0A0E0EA2BFF
:1029A000AE85A40FF1E0A41708F0F0E04E2E4A0E19
:1029B000E1E04A1608F0E0E0FE2BAF85A50FE1E06C
:1029C000A51708F0E0E03F2E3A0EF1E03A1608F0C5
:1029D000F0E0EF2BF1E0BF81B61708F0F0E02F80B8
:1029E0002E0EE1E0AF812A1608F0E0E0FE2BE1E0D8
:1029F000B885B71708F0E0E0D884DF0EF1E0A885CD
:102A0000DA1608F0F0E0EF2BF1E0B985B81708F01E
:102A1000F0E079847E0E81E0E9857E1608F080E0A2
:102A2000CF2EC82AF889CF0ED501ED91FC910190E7
:102A3000F081E02D262D352D442D532D622D7D2D39
:102A4000872D9C2D8E010F5F1F4FB2E0EB2EF12CD6
:102A50000995882399F189809A808114910461F104
:102A6000C40140968830910548F1B8EF8B16BFEF4E
:102A70009B0610F0882499241A821982D501ED91C1
:102A8000FC910480F581E02D262D352D442D532D0C
:102A9000622D7D2D872D9C2D8E010F5F1F4FA2E093
:102AA000EA2EF12C0995940140E050E02115310502
:102AB0004105510509F05ACF81E001C080E06096E0
:102AC0000FB6F894DEBF0FBECDBFCF91DF911F913F
:102AD0000F91FF90EF90DF90CF90BF90AF909F90BD
:102AE0008F907F906F905F904F903F902F900895C0
:102AF0002F923F924F925F926F927F928F929F920E
:102B0000AF92BF92CF92DF92EF92FF920F931F93FB
:102B1000DF93CF93CDB7DEB7A9970FB6F894DEBF9A
:102B20000FBECDBF3C014CA35DA36EA37FA3009756
:102B300009F4E1C2DC01ED91FC911197E080F18094
:102B4000F9A6E8A6448155815F8B4E8B1A965C915D
:102B50001A975C8F1B968C911B978D8F1C969C915E
:102B60001C979E8F1D96AC91AF8FD3011E96CC9073
:102B70001E971F965C901F9750964C9050975196B9
:102B8000BC91B8A341E04BA380858B3069F01BA2B8
:102B9000D30152968D919D910D90BC91A02DB6952B
:102BA000A795979587950EC0D30152968D919D91CB
:102BB0000D90BC91A02D42E0B695A795979587956D
:102BC0004A95D1F78A879B87AC87BD87802F912F45
:102BD000A22FB32F8A8B9B8BAC8BBD8BA4E0EA2EEC
:102BE000F12C012D112DE88EF98E0A8F1B8F02E03A
:102BF00010E020E030E00E871F87288B398B882477
:102C0000992454017AA269A26C2C6BC11BA11123D7
:102C100009F474C0288D398D4A8D5B8D220F331FC6
:102C2000441F551F60E070E0CB017C8C720EA1E068
:102C3000721608F0A0E0FD8DF30FE1E0F31708F045
:102C4000E0E03A2E3F0EA1E03F1608F0A0E0EA2BAC
:102C5000AE8DA40FF1E0A41708F0F0E02E2E2A0E9E
:102C6000E1E02A1608F0E0E0FE2BAF8DA50FE1E0D1
:102C7000A51708F0E0E0FA0FFF83F1E0BF81BA1773
:102C800008F0F0E0EF2BF1E0661608F0F0E0E60D5A
:102C9000E887E1E0E884E61408F0E0E0FE2BE1E0FC
:102CA000571608F0E0E0F50DF987F1E0F984F51426
:102CB00008F0F0E0EF2BF1E0481608F0F0E0CE2E3F
:102CC000C40C81E0C41408F080E0DF2ED82A08A1EB
:102CD000D00E272D332D422D5F8168857985C60161
:102CE0008E010D5F1F4FE4E0EE2EF12CA8A5B9A5D3
:102CF000FD010995882309F07BC0FDC1E88CF98CA2
:102D00000A8D1B8DA801970160E070E0CB01CC8C8F
:102D1000CE0CA1E0CE1408F0A0E0ED8DE30FF1E0C1
:102D2000E31708F0F0E0AE0FAF83A1E0FF80FE16DE
:102D300008F0A0E0FA2BAE8DA40FE1E0A41708F094
:102D4000E0E0FA0FF887F1E008850A1708F0F0E0F4
:102D5000EF2BFF8DF50FA1E0F51708F0A0E0EF0FC6
:102D6000E987E1E019851F1708F0E0E0AE2BE62FB8
:102D7000E60DF1E0E61708F0F0E07A2E7E0EA1E015
:102D80007E1608F0A0E0FA2BA72FA50DE1E0A7170B
:102D900008F0E0E02F2E2A0EF1E02A1608F0F0E00D
:102DA000EF2BF82FF40DA1E0F81708F0A0E03E2E6D
:102DB0003F0EE1E03F1608F0E0E0DA2EDE2A88A1BF
:102DC000890FD80E2C2D3F8148855985672D722D8E
:102DD000832D9D2D8E010F5F1F4FB2E0EB2EF12C46
:102DE000A8A5B9A5FD010995882309F0A2C183C151
:102DF0008B819C81AD81BE810097A105B10509F051
:102E000059C081149104A104B10469F4AFEFEA2E12
:102E1000AFEFFA2EAFEF0A2FAFE01A2FEB82FC8252
:102E20000D831E8304C08B829C82AD82BE82272DBF
:102E3000332D422D5F8168857985C6018E010D5F36
:102E40001F4FF4E0EF2EF12C1AC081149104A1045D
:102E5000B10429F4EFEFFFEFFA83E98302C09A820D
:102E600089822C2D3F8148855985672D722D832DB0
:102E70009D2D8E010F5F1F4FE2E0EE2EF12CAE89EB
:102E8000BF89FD0109958823D1F10A891B892C8905
:102E90003D8901501040204030400A8B1B8B2C8B09
:102EA0003D8B0115110521053105A9F18E849F8403
:102EB000A888B9882E853F85488959892F5F3F4F5B
:102EC0004F4F5F4F2E873F87488B598B888D998D49
:102ED000AA8DBB8D0296A11DB11D888F998FAA8FD7
:102EE000BB8FEE84FF84088919892A853B854C8530
:102EF0005D85E216F3060407150708F487CEC62C95
:102F000069A07AA08A899B89AC89BD890097A105AF
:102F1000B10541F0ECC0C62C69A07AA08E849F84D4
:102F2000A888B9880CA11DA12EA13FA102301105CE
:102F30002105310508F4E2C01BA1112309F46DC07D
:102F40008B829C82AD82BE820CA11DA12EA13FA1CD
:102F5000B2E0000F111F221F331FBA95D1F740E0D6
:102F600050E0BA013C8C300E91E0301608F090E051
:102F70008D8D810FB1E0811708F0B0E0D92ED80E09
:102F800091E0D81608F090E0B92B8E8D820FA1E069
:102F9000821708F0A0E0B80F91E0B81708F090E0B1
:102FA000A92B8F8D830FF1E0831708F0F0E0A80FB5
:102FB00091E0A81708F090E0F92BE1E0C41608F0C2
:102FC000E0E0FC0D81E0FC1508F080E0E82B81E0FA
:102FD000551608F080E0E50D91E0E51508F090E069
:102FE000892B91E0461608F090E0840D21E08415CD
:102FF00008F020E0922B232D3D2D4B2F5A2F6F2FC1
:103000007E2FA8A19A0F8E010D5F1F4FA4E0EA2E1C
:10301000F12CEE89FF89099568C09A8289820CA1FA
:103020001DA12EA13FA1000F111F221F331F40E041
:1030300050E0BA013C8C300E91E0301608F090E080
:103040008D8D810FB1E0811708F0B0E0D92ED80E38
:1030500091E0D81608F090E0B92B8E8D820FA1E098
:10306000821708F0A0E0B80F91E0B81708F090E0E0
:10307000A92B8F8D830FF1E0831708F0F0E0A80FE4
:1030800091E0A81708F090E0F92BE1E0C41608F0F1
:10309000E0E0FC0D81E0FC1508F080E0E82B81E029
:1030A000551608F080E0E50D91E0E51508F090E098
:1030B000892B91E0461608F090E0840D21E08415FC
:1030C00008F020E0922B232D3D2D4B2F5A2F6F2FF0
:1030D0007E2FF8A19F0F8E010F5F1F4FE2E0EE2EB3
:1030E000F12CAE89BF89FD010995882339F4C3010C
:1030F000B501A40130DB882499245401B401C50131
:10310000A9960FB6F894DEBF0FBECDBFCF91DF9169
:103110001F910F91FF90EF90DF90CF90BF90AF90F5
:103120009F908F907F906F905F904F903F902F90E7
:10313000089589819A81009709F0BCCE86CE80E1FE
:1031400090E008952F923F924F925F926F927F92FC
:103150008F929F92AF92BF92CF92DF92EF92FF92A7
:103160000F931F93CF93DF93EC01009709F476C080
:10317000423051056105710508F470C0425050405D
:10318000604070405A016B01288C398C9A01A6016D
:1031900060E070E080E090E05101CC24DD24EE247A
:1031A000FF2400E010E00E945801FA8DEB8DFC8CAA
:1031B0002D8CAE8CBF8DA8A109A1F20F11E0F217E2
:1031C00008F010E0E30F21E0E31708F020E0312FD2
:1031D0003E0F11E03E1708F010E0212B142F1F0DB9
:1031E000E1E0141708F0E0E0422F410F21E0411721
:1031F00008F020E0E22B250E21E0251608F020E063
:103200005E2F520DE1E0521508F0E0E02E2BA60EE5
:10321000E1E0A61608F0E0E0622F6A0D21E06A15F1
:1032200008F020E0E22BB70F21E0B71708F020E00C
:103230007E2F7B0FE1E07B1708F0E0E02E2BA80F3C
:10324000E1E0A81708F0E0E0822F8A0F21E08A175A
:1032500008F020E0E22B900FE90F08C0F0E030E02A
:1032600040E050E060E070E080E0E0E02F2F9E2F33
:10327000DF91CF911F910F91FF90EF90DF90CF9052
:10328000BF90AF909F908F907F906F905F904F9086
:103290003F902F9008958F929F92AF92BF92CF92BE
:1032A000DF92EF92FF920F931F93DF93CF93CDB7EF
:1032B000DEB72D970FB6F894DEBF0FBECDBFFC0171
:1032C0006701D701ED90FC90119712968D919C911A
:1032D0001397809613969C938E9312978081853EC8
:1032E00009F403C1882309F400C1D70199968C9190
:1032F00099979A969C919A97892B9B969C919B97CC
:10330000892B9C969C919C97892B9D969C919D972F
:10331000892B9E969C919E97892B9F969C919F9717
:10332000892BD0969C91D097892BC1F499960C93B8
:1033300099979A961C939A979B962C939B979C96F9
:103340003C939C979D964C939D979E965C939E97DD
:103350009F966C939F97D0967C93D097E114F1043D
:1033600009F4C1C0309709F4BEC02081222309F4BA
:10337000BAC083858F30C1F530E02F733070215093
:1033800030404DE050E0249FC001259F900D349FB8
:10339000900D11249E012F5F3F4F65E671E04DE0D7
:1033A000DB010D90BD01D9010D929D014150C1F786
:1033B0009E012F5F3F4FE80EF91EAC01435F5F4F48
:1033C0000FC0D9016D919D01DF01A60FB11D6C9158
:1033D000D7016D937D0101968417950709F485C087
:1033E0008F31910570F381C0D7018C91882309F04A
:1033F00052C08F01C7019F0160E0D9017D919D01FD
:103400007032A9F0DC017C93448543FF0CC0A90114
:1034100041505040DA014C91413428F04B3518F4BA
:10342000705EDC017C936F5F0196683031F7D701E5
:103430008C91853011F485EE8C938085803239F142
:10344000C701860F911D2EE2DC012C93462F4C5FA5
:103450006F5FD80118962C9118972032C1F0C701E0
:10346000860F911DDC012C93348534FF0BC0D801ED
:1034700018963C911897313428F03B3518F4205EAB
:10348000DC012C936F5F0F5F1F4F641711F7D7019B
:10349000A60FB11D1C928385D70190968C938489C9
:1034A0009589A0E0B0E05C0199248824228D338DB9
:1034B00040E050E0822A932AA42AB52AD7019196A7
:1034C0008D929D92AD92BC929497848D958DA68D90
:1034D000B78DF70185A396A3A7A3B0A781E0D60176
:1034E00014968C93149780E001C081E02D960FB65E
:1034F000F894DEBF0FBECDBFCF91DF911F910F912A
:10350000FF90EF90DF90CF90BF90AF909F908F9003
:103510000895AF92BF92CF92DF92EF92FF920F93F6
:103520001F93DF93CF93CDB7DEB760970FB6F894B4
:10353000DEBF0FBECDBF7C01423051056105710574
:10354000E0F000DE8E010F5F1F4FE0E1D8011D9219
:10355000EA95E9F7D701ED91FC9111975896ED9016
:10356000FC9059970680F781E02DAFE9CA2EA8E1BB
:10357000DA2EAA24BB24099501C080E060960FB61C
:10358000F894DEBF0FBECDBFCF91DF911F910F9199
:10359000FF90EF90DF90CF90BF90AF9008952F9263
:1035A0003F924F925F926F927F928F929F92AF92D3
:1035B000BF92CF92DF92EF92FF920F931F93DF9310
:1035C000CF93CDB7DEB7A5970FB6F894DEBF0FBE89
:1035D000CDBF6B01009709F4B0C16115710509F405
:1035E000ACC1DC01ED91FC91248135813DA32CA37C
:1035F000DB019996BC91BAA3FB0122A433A444A495
:1036000055A466A477A4F0A9FBA3B62EAD2CDB01CC
:103610000D900020E9F711970A2F061B802F90E0EC
:103620000C966DE070E00E947F3269A3CE01019696
:1036300060E270E04BE050E00E94F432C6016EE2BE
:1036400070E00E942C330097F9F09C012F5F3F4FF0
:10365000DC0111968C9111978823B1F0F90101904A
:103660000020E9F73197E21BF30B8E2F8095080FAE
:10367000BE01675F7F4F4E2FE43008F043E0CB017F
:10368000B90150E00E94EB32CE010196093088F476
:103690006B2D7A2D402F50E00E94EB32F601808195
:1036A0008E3239F581818E3209F48281882301F1CD
:1036B00020C0FC019501832F9A2DDC0188E00D903C
:1036C00001928150E1F7D60191968C919197982FB4
:1036D00092959F70803A10F4905D01C09F599F832E
:1036E0008F708A3010F4805D01C08F59888701C0C7
:1036F00019A28981853E11F485E0898385E1FE0167
:103700003C96DF011D928A95E9F7F60180A18C872E
:103710009E012F5F3F4F81A192A1A3A1B4A1F90106
:10372000B58BA48B938F828FF60185A196A1A7A15B
:10373000B0A58D8F9E8FAF8FB8A3F9A10F2F10E08A
:10374000F5E0000F111FFA95E1F720E030E040E0CE
:1037500050E0BA01AAA0A00E91E0A01608F090E0F7
:10376000812F820DB1E0811708F0B0E0B92EB80EBC
:1037700091E0B81608F090E0B92BA1E0321608F0FD
:10378000A0E0B30D81E0B31508F080E0A82BF1E0D4
:10379000431608F0F0E0A40D81E0A41508F080E0E5
:1037A000F82BE1E0541608F0E0E0F50D81E0F515A6
:1037B00008F080E0E82B81E0651608F080E0E60D77
:1037C00091E0E61508F090E0892B91E0761608F07C
:1037D00090E0870D21E0871508F020E0922B9501FD
:1037E0004B2F5A2F6F2F7E2FABA19A0F8E010F5F99
:1037F0001F4FE0E2EE2EF12CECA1FDA109958823EC
:1038000009F49BC0B980FE013296CE010C962B2D97
:10381000279522272795B694B22A2191B20EE81750
:10382000F907A9F7A9A04E010894811C911C80C03A
:10383000C4016FEF70E040E250E00E94F4328A2D44
:1038400090E001972DE030E0829FF001839FF00D22
:10385000929FF00D1124EC0DFD1D21E0AF01C4017C
:10386000820F911D3081DC013C932F5FC401820FD8
:10387000911DDC011C922F5F2B3019F02A3121F4AD
:1038800002C02EE001C02CE13196DA018C91882330
:1038900011F02F3118F3A982B9A1AB1619F48A2DB2
:1038A00080648983EFE0EC87BE861D861B8E1C8EAC
:1038B0002AA1322D432D542D652D762D872D9BA1C8
:1038C0008401B0E2EB2EF12CACA1BDA1FD01099564
:1038D0007AA1705E61E0BAA17B1708F060E0620D2A
:1038E00051E0621508F050E0530D41E0531508F027
:1038F00040E0440D31E0441508F030E0350D21E0A2
:10390000351508F020E0260D91E0261508F090E02E
:10391000970D81E0971508F080E07AA3262E352ECA
:10392000442E532E622E792EEBA1E80FEBA3AA941E
:10393000AA2009F07DCF81E001C080E0A5960FB6F6
:10394000F894DEBF0FBECDBFCF91DF911F910F91D5
:10395000FF90EF90DF90CF90BF90AF909F908F90AF
:103960007F906F905F904F903F902F9008952F928F
:103970003F924F925F926F927F928F929F92AF92FF
:10398000BF92CF92DF92EF92FF920F931F93DF933C
:10399000CF93CDB7DEB765970FB6F894DEBF0FBEF5
:1039A000CDBF9B838A839B01009709F437C24115E1
:1039B000510509F433C2FA0101900020E9F7CF0163
:1039C000841B950B0B966DE070E00E946B326F5F6D
:1039D0006D8BD9018D919D910D90BC91A02D8C8303
:1039E0009D83AE83BF83AA81BB81ED91FC9111972A
:1039F00080852C813D814E815F81211531054105F6
:103A00005105D1F58B3059F49A968D919D910D9079
:103A1000BC91A02D8C839D83AE83BF832DC0EA8192
:103A2000FB8122A0D3A0C4A0B5A0A6A097A080A48B
:103A300071A4F28DFD87AA81BB815B96BC91BE8784
:103A4000EA81FB81F48DFF87AA81BB815D96BC91E1
:103A5000B88BEA81FB81F68DF98BAA81BB815F96D9
:103A6000BC91BA8BEA81FB81F0A1FB8BAA81BB815F
:103A70009196BC91BC8B10C01D861E861F86188A2D
:103A8000198A1A8A1B8A1C8A2224DD24CC24BB248E
:103A9000AA24992488247724522C4D2C3C2CB886B7
:103AA000A9869A868B86672C1C86ED852E1609F0D2
:103AB0002DC1FE85DF1609F029C12F85C21609F038
:103AC00025C13889B31609F021C14989A41609F026
:103AD0001DC15A89951609F019C18B89881609F0FC
:103AE00015C19C89791609F011C12C813D814E8147
:103AF0005F81211531054105510509F48FC1D22897
:103B0000DC28DB28DA28D928D828D72809F4ABC044
:103B10008A819B81BA01A9010E9440126115710539
:103B20008105910509F09BC08A819B814C815D8153
:103B30006E817F8101E010E020E030E00E94781586
:103B40006C837D838E839F8361157105810591054B
:103B500009F464C1DC01CB010297A109B1095C0140
:103B60006D01AA81BB8158962D903C905997950183
:103B7000A60160E070E080E090E05101CC24DD24FB
:103B8000EE24FF2400E010E00E945801EA81FB814E
:103B9000528CB38DA48DA58C968CB78CC0A0D1A06F
:103BA000520E11E0521608F010E0B30F21E0B317E7
:103BB00008F020E0412E4B0E31E04B1608F030E0CB
:103BC000232BA40F31E0A41708F030E0322E3A0E78
:103BD00021E03A1608F020E0322BFA2DF50F21E013
:103BE000F51708F020E0A32FAF0F31E0AF1708F072
:103BF00030E0232BE92DE60F31E0E61708F030E046
:103C0000622F6E0F21E06E1708F020E0322B572F45
:103C10005B0D21E0571708F020E0350F41E0351724
:103C200008F040E0242B482F4C0D51E0481708F0D5
:103C300050E0822F840F21E0841708F020E0652EE9
:103C4000622AD90EA88769873A878B876D0C8A818B
:103C50009B814C815D816E817F815BDCE7C06C83E1
:103C60007D838E839F838A819B814C815D816E8160
:103C70007F8168DA222ED32EC42EB52EA62E972E43
:103C8000882E792EAA81BB8158962D913C91599707
:103C9000E22DE20FF1E0E21508F0F0E09D2D930F28
:103CA00021E09D1508F020E06F2F690F81E0691772
:103CB00008F080E0822B8C0D51E08C1508F050E06C
:103CC0005B0D41E05B1508F040E04A0D31E04A151C
:103CD00008F030E0390D21E0391508F020E0280D1A
:103CE00091E0281508F090E0ED876E878F87588B5C
:103CF000498B3A8B2B8B970D9C8B522C4D2C3C2C4B
:103D0000B886A9869A868B86672C1C86AA81BB8179
:103D1000ED91FC910190F081E02D222D3D2D4C2D57
:103D20005B2D6A2D792D882D972D8E010F5F1F4FEA
:103D3000A1E0EA2EF12C0995882309F46FC089814E
:103D4000853E11F08823A1F5BC85BF5FBC87ED8956
:103D5000BE1708F06BC0722D705E61E0721508F03E
:103D600060E06D0D51E06D1508F050E05C0D41E034
:103D70005C1508F040E04B0D31E04B1508F030E0E9
:103D80003A0D21E03A1508F020E0290D91E02915BF
:103D900008F090E0980D81E0981508F080E0272E5B
:103DA000D62EC52EB42EA32E922E892E780E7DCE21
:103DB000522D505E81E0521508F080E0482E4D0CE7
:103DC00081E04D1408F080E0382E3C0C41E03C14BA
:103DD00008F040E04B0D31E04B1508F030E03A0DB3
:103DE00021E03A1508F020E0290D91E0291508F0AE
:103DF00090E0980D81E0981508F080E0552E4887F6
:103E000039872A879B87682E670C252ED42CC32CD4
:103E1000B42EA32E922E892E762C46CE55244424E1
:103E20003324188619861A861B866624252D342D80
:103E3000432D588569857A858B85962D65960FB6B5
:103E4000F894DEBF0FBECDBFCF91DF911F910F91D0
:103E5000FF90EF90DF90CF90BF90AF909F908F90AA
:103E60007F906F905F904F903F902F9008952F928A
:103E70003F924F925F926F927F928F929F92AF92FA
:103E8000BF92CF92DF92EF92FF920F931F93DF9337
:103E9000CF93CDB7DEB7C654D0400FB6F894DEBF8F
:103EA0000FBECDBF1C01009709F49EC3DC01149620
:103EB0008D919C911597009709F496C316968D9154
:103EC0009C911797009709F48FC3ABC3ECE8F4E01B
:103ED0008EE2DF011D928A95E9F730928D042092DF
:103EE0008C04F101A184B284C384D4849501A60119
:103EF00060E070E080E090E009E00E949302822E92
:103F00003EA34FA358A769A77AA78BA723969FAF75
:103F10002397255F31E0281508F030E0FEA13F0F20
:103F200041E03F1708F040E0EFA04E0D51E04E1584
:103F300008F050E0F8A45F0D61E05F1508F060E064
:103F400009A5600F71E0601708F070E01AA5710F05
:103F500081E0711708F080E09BA5890F91E0ABA587
:103F60008A1708F090E0D101ED91FC912396BFAD46
:103F700023979B0F5E010894A11CB11C8501A5E24B
:103F8000EA2EF12C0995882309F42AC3E981FA81E4
:103F9000FFABEEABD50113960D90BC91A02DBDAB40
:103FA000ACABBB81BFAF9E80F5010680F781E02DF1
:103FB0002296FFAFEEAF2297D50118968D919C9176
:103FC00019971B96ED91FC911C97FEAFEDAF55969E
:103FD000ED90FD900D911C91589759962D913D9122
:103FE0004D915C915C9729AF3AAF4BAF5CAF919626
:103FF0002D913D914D915C91949727962CAF3DAFBB
:104000004EAF5FAF2797E114F1040105110531F4BC
:10401000009709F4E5C27C0100E010E0EDADFEADD3
:10402000309741F09F0140E050E029AF3AAF4BAFED
:104030005CAF0AC069AD7AAD8BAD9CAD6115710501
:104040008105910509F4CCC2ECA9FDA9CF01A0E03E
:10405000B0E057016801A81AB90ACA0ADB0A292D7B
:1040600030E040E050E069AD7AAD8BAD9CAD0E9490
:104070004C32A61AB70AC80AD90A8EA99FA9019775
:1040800022962EAD3FAD2297B5E0220F331FBA9591
:10409000E1F7820F931F6EA97FA90E946B3280E027
:1040A00090E0A61AB70AC80AD90AFFAD2F2F30E050
:1040B00040E050E0C601B5010E94923229013A0168
:1040C00025EF42162FE0520620E0620620E072063D
:1040D00008F486C235EF43163FEF530630E063061F
:1040E00030E0730630F486E0D10118968C9318976F
:1040F00003C08BE0F10180878CE2EEE8F4E0DF01A1
:104100001D928A95E9F74EA95FA99A0140E050E017
:1041100060E070E0CB012CA73DA74EA75FA768AB7E
:1041200079AB8AAB9BAB570168019701A60160E0B0
:1041300070E080E090E0ACA4BDA4CC24DD24EE24AB
:10414000FF2400E010E00E94580120938E04309379
:104150008F04409390045093910460939204709361
:1041600093048093940490939504ECA9FDA99F0176
:1041700040E050E060E070E080E090E00E94580194
:10418000820E88AEE1E0821608F0E0E0FEA1F30FB7
:1041900021E0F31708F020E0EF0FEEA331E0EF1776
:1041A00008F030E0232BEFA1E40F31E0E41708F032
:1041B00030E02E0F2FA321E0FFA1FE1708F020E032
:1041C000322B28A5250F41E0251708F040E0320FDB
:1041D00038A731E0E8A4E21608F030E0432B39A517
:1041E000360F21E0361708F020E0430F49A741E0E1
:1041F000F9A4F31608F040E0242B4AA5470F31E05C
:10420000471708F030E0240F2AA721E00AA5041779
:1042100008F020E0322B2BA5280F41E0281708F0EA
:1042200040E0320F3BA781E0321708F080E0482BD6
:1042300023961FAD2397910F490F4CAB28AD2093C8
:1042400096043EA1309397044FA14093980458A53B
:104250005093990469A560939A047AA570939B047E
:104260008BA580939C049CA990939D04A30192012B
:104270002E5F3F4F4F4F5F4FD10118961C911897FB
:10428000163029F064E070E080E090E004C062E065
:1042900070E080E090E00E944C3260939E04709346
:1042A0009F048093A0049093A104EEA9FFA9F0932A
:1042B000A304E093A204FFAD2F2F30E0EEA8FFA8E7
:1042C0002E9DC0012F9D900D3E9D900D1124909329
:1042D000A5048093A404163009F0ECC02CA53DA5DC
:1042E00040E050E060E070E080E090E0A92CBB246A
:1042F000CC24DD24EE24FF2400E010E00E945801CD
:104300000DAD1EAD580100E010E00E945801A22E34
:1043100018ADA10E21E0A11608F020E0AEA13A0FE1
:1043200011E03A1708F010E0222E230E21E02316A8
:1043300008F020E0122BBFA14B0F31E04B1708F023
:1043400030E0140F21E0141708F020E0322BE8A52C
:104350005E0F21E05E1708F020E0F32EF50E31E04D
:10436000F51608F030E0232BF9A56F0F31E06F1739
:1043700008F030E0E22EE60E21E0E61608F020E03C
:10438000322B0AA5700F21E0701708F020E0D32E21
:10439000D70E31E0D71608F030E0232B3BA5830F72
:1043A00031E04BA5841708F030E0C22EC80E21E0A2
:1043B000C81608F020E0B32EB22A5CA9950FB90EFA
:1043C000A092AE042092AF041093B004F092B10416
:1043D000E092B204D092B304C092B404B092B50497
:1043E0002296EEADFFAD22979F0140E050E060E0E5
:1043F00070E080E090E005E00E9493022A0DA1E0C9
:104400002A1508F0A0E0320DF1E0321508F0F0E0D6
:10441000A30FE1E0A31708F0E0E0FE2B410FE1E07D
:10442000411708F0E0E0F40F31E0F41708F030E055
:10443000E32B5F0D31E05F1508F030E0E50F41E060
:10444000E51708F040E0342B6E0D41E06E1508F0E2
:1044500040E0B32FB60F31E0B61708F030E0432B41
:104460007D0D31E07D1508F030E0470F51E0471732
:1044700008F050E0352B5C2D580F61E05C1508F01A
:1044800060E0350F81E0351708F080E0862BB90E2B
:104490008B0D2093A604A093A704F093A804E093A7
:1044A000A904B093AA044093AB043093AC04809366
:1044B000AD0493C02CA53DA540E050E060E070E065
:1044C00080E090E0A92CBB24CC24DD24EE24FF2442
:1044D00000E010E00E945801E9ACFAAC0BAD1CAD55
:1044E0001701280157016201EE24FF2400E010E0CB
:1044F0000E945801E8ADE20FF1E0E21708F0F0E0A9
:10450000AEA1A30F21E0A31708F020E0FA0F31E0DD
:10451000FA1708F030E0232BAFA1A40F31E0A41765
:1045200008F030E0B22FBA0F21E0BA1708F020E00F
:10453000322B48A5450F21E0451708F020E0A32FB6
:10454000A40F31E0A41708F030E0232B49A5460F53
:1045500031E0461708F030E0622F640F21E0641765
:1045600008F020E0322B4AA5470F21E0471708F05A
:1045700020E0340F51E0341708F050E0252B4BA514
:10458000480F71E0481708F070E0522F540F81E097
:10459000541708F080E0872BFCA89F0D890FE0934B
:1045A000A604F093A704B093A804A093A904609371
:1045B000AA043093AB045093AC048093AD042796C7
:1045C0000CAD1DAD2EAD3FAD27970093B6041093F3
:1045D000B7042093B8043093B9042CE834E006C043
:1045E00010928D0410928C0420E030E0C901CA5B67
:1045F000DF4F0FB6F894DEBF0FBECDBFCF91DF9176
:104600001F910F91FF90EF90DF90CF90BF90AF90F0
:104610009F908F907F906F905F904F903F902F90E2
:10462000089580918C0490918D040097E9F64ECC0A
:10463000CF93DF93DB01009789F1109779F1909682
:104640002C91909724FD2AC02FC0CFE4D4E0FD0127
:1046500021E3019009922150E1F790934E04809359
:104660004D04E0E8F4E0109280041182128213827B
:10467000148215821682178291962D913D914D914B
:104680005C919497209388043093890440938A0422
:1046900050938B049F012353304002C020E030E050
:1046A000C901DF91CF91089520914D0430914E04BE
:1046B0002115310599F7C9CF009719F0FC01118236
:1046C000108208952F923F924F925F926F927F9245
:1046D0008F929F92AF92BF92CF92DF92EF92FF9212
:1046E0000F931F93DF93CF93CDB7DEB763970FB6CA
:1046F000F894DEBF0FBECDBF1C017E876D875A8741
:104700004987009709F48BC26115710509F487C2C6
:104710004115510509F483C2DC01D396BC91B983DC
:10472000FC01F4A9FA83DC01D596BC91BB83FC01A2
:10473000F6A9FC83DC01D796BC91BD83FC01F0ADEA
:10474000FE83DC01D996BC91BF83FC01F2ADF887F2
:10475000DC0197964D905D906D907C909A979A01B0
:1047600040E050E060E070E0CB01E980E20EF1E073
:10477000E21608F0F0E0EA81E30F11E0E31708F039
:1047800010E0CF2ECE0EB1E0CE1608F0B0E01B2B1D
:10479000EB81E40FB1E0E41708F0B0E0A12FAE0F19
:1047A00011E0AE1708F010E0B12BFC80F50E11E01F
:1047B000F51608F010E0BF0D01E0BF1508F000E0AD
:1047C000102BDD80D60E01E0D61608F000E01D0D9E
:1047D000FF24F3941D1508F0FF240F29FE80F70E27
:1047E000DD24D394F71608F0DD240F0DAA24A3943A
:1047F0000F1508F0AA24DA28AF80A80E8824839425
:10480000A81608F08824FD2CFA0CE1E0FA1408F050
:10481000E0E08E2A8885890F880EA301920160E06E
:1048200070E0CB019815E0F0891621F58F15C0F0E6
:10483000F81601F57017A0F00717E1F4611780F082
:104840001617C1F45B1760F0B517A1F44A1740F0D2
:10485000A41781F43C1520F0C31661F44E1450F4F3
:10486000F201E980FA80EE19FF09FA87E9873097AB
:1048700009F4D2C1D101ED91FC911197E08CF18C3A
:10488000FC86EB86DB96AD90BD90CD90DC90DE97FC
:10489000A114B104C104D10409F051C09396AD90A4
:1048A000BD90CD90DC909697A114B104C104D104C1
:1048B00091F48981FA808F290B81802B1C81812BB7
:1048C0002D81822B3E81832B4F81842B5885852B14
:1048D00009F4A2C1A4C189816A81862B7B81872BBF
:1048E0009C81892BAD818A2BBE818B2BEF818E2BF6
:1048F000F8858F2B21F1E980FA800B811C812B85B3
:104900003C85390188249924B601A50111C0D10143
:104910008D919C910E944012AB01BC014115510543
:104920006105710509F47BC1E618F7080809190942
:10493000E614F7040805190550F75A016B014B847A
:104940005C84089441085108E981FA814E225F2273
:1049500069847A843B8A2A8AAA89BB890D911C9131
:10496000C801B601A5010E94A218A22F3F87488B5B
:10497000598B8B849C84841895086814790408F4F6
:104980004301F80120803180720100E010E020E056
:1049900030E0A9014982FA820B831C832D833E8378
:1049A0004F835887242D2A0F41E0241508F040E05A
:1049B000FA81FF84FF0DE1E00A81F01708F0E0E0E2
:1049C000342F3F0FA1E03F1708F0A0E0EA2B5B81F6
:1049D0001889510FF1E04B81541708F0F0E04E2F89
:1049E000450FE1E0451708F0E0E0FE2B1C815989F6
:1049F000150FE1E0AC811A1708F0E0E05F2F510FCE
:104A0000F1E0511708F0F0E0EF2B1D81160FF1E0F7
:104A1000BD811B1708F0F0E06E2F610FE1E0611718
:104A200008F0E0E0FE2B1E81170FE1E0EE801E157E
:104A300008F0E0E07F2F710FF1E0711708F0F0E06F
:104A4000EF2BFF81F80F11E0FF80FF1508F010E059
:104A50008E2F8F0FE1E08F1708F0E0E01E2B088506
:104A6000900FD101ED91FC91910F0D851E85740180
:104A70000995882309F4B6C068187908940140E0C4
:104A800050E060E070E0CB01AA89BB89D396EC913D
:104A9000D397D4962C90D497D596EC90D597D6965C
:104AA000FC90D697D796FC91D797D8963C90D897FC
:104AB000D996BC91B983AA89BB89DA96BC91BF8784
:104AC000E80D01E0E81508F000E0B22DB30F11E0A9
:104AD000B31708F010E00B0FA1E00B1708F0A0E0EF
:104AE0001A2BA42FAE0DB1E0A41708F0B0E01A0FF6
:104AF000EE24E3941A1708F0EE24BE29F50EA1E087
:104B0000F51608F0A0E0BF0DB88BEE24E394BF15B6
:104B100008F0EE24AE29F60F22242394F61708F0AD
:104B20002224AF0FA98BFF24F394AF1708F0FF24C2
:104B30002F28F72FF30D33243394F71708F033247D
:104B40002F0EFF24F3942F1608F0FF243F28F9813D
:104B5000F80FEE24E394F81708F0EE243F0EFF243C
:104B6000F3943F1608F0FF24FE288F85890FF80E76
:104B7000AA89BB89D396EC93D397D4960C93D497F8
:104B8000D5961C93D597E889D696EC93D697F98954
:104B9000D796FC93D797D8962C92D897D9963C92D3
:104BA000D997DA96FC92DA97C401840D951DEB84AF
:104BB000FC848E159F05E8F08D919C91B601A501AE
:104BC0000E9440125B016C01611571058105910520
:104BD00071F42A883B88D101DB961D921D921D92AB
:104BE0001C92DE9729853A85261937091AC0442474
:104BF0005524EA89FB89A3AEB4AEC5AED6AE611426
:104C0000710439F0ED84FE84E80CF91CFE86ED8613
:104C1000A3CE29853A8505C020E030E002C02FEF01
:104C20003FEFC90163960FB6F894DEBF0FBECDBF4C
:104C3000CF91DF911F910F91FF90EF90DF90CF9078
:104C4000BF90AF909F908F907F906F905F904F90AC
:104C50003F902F9008952F923F924F925F926F92C4
:104C60007F928F929F92AF92BF92CF92DF92EF92FC
:104C7000FF920F931F93DF93CF93CDB7DEB7649767
:104C80000FB6F894DEBF0FBECDBF998B888B7C87A3
:104C90006B875E874D87009709F4E9C2611571053E
:104CA00009F4E5C24115510509F4E1C2DC01D396CE
:104CB000BC91B983FC01F4A9FA83DC01D596BC91BF
:104CC000BB83FC01F6A9FC83DC01D796BC91BD83B4
:104CD000FC01F0ADFE83DC01D996BC91BF83FC01E1
:104CE000F2ADF887DC0197962D913D914D915C9145
:104CF0009A9760E070E0CB019F1708F4B8C2F917EB
:104D000041F5FF818F1708F4B2C2F81711F5FE8044
:104D10007F1508F4ACC2F716E1F41D81611708F4A1
:104D2000A6C21617B1F4BC815B1708F4A0C2B51770
:104D300081F4FB814F1708F49AC2F41751F4FA80FA
:104D40003F1508F494C2F31621F41981211708F4D1
:104D50008EC2A889B9898D919C911197FC01008C14
:104D6000F18DE02DFA87E987DB96AD90BD90CD906F
:104D7000DC90DE97A114B104C104D10409F08DC008
:104D80009396AD90BD90CD90DC909697A114B10410
:104D9000C104D10451F52981FA812F2BEB802E29F2
:104DA000FC802F290D81202B1E81212B3F81232B5D
:104DB0004885242B09F05BC240E050E0BA0101E0D5
:104DC00010E020E030E00E9478155B016C01A889BA
:104DD000B98993966D937D938D939C939697611566
:104DE00071058105910509F442C2E889F98973A921
:104DF00064A955A946A9E7A9A889B989D8963C917B
:104E0000D897D9962C91D997DA969C91DA97872FD3
:104E1000862B852B842B8E2B832B822B892BE9F1E0
:104E20009B01CA01632E722E892E982EE985FA8580
:104E30001F01442455247D0129C062187308840889
:104E40009508D7018D919C91B601A5010E94401251
:104E50006115710581059105B9F46114710481042E
:104E6000910409F004C2F70180819181B601A50186
:104E700001E010E020E030E00E9478156115710536
:104E80008105910509F4F3C15B016C01621473049F
:104E90008404950490F6F98AE88A69847A840894EF
:104EA00061087108E980FA806E207F208D849E84DD
:104EB000088919891C8B0B8BAB89BC890D911C91BE
:104EC000C801B601A5010E94A218A22F3F87488BF6
:104ED0005A8B49845A84461857088414950408F458
:104EE0002401F80120803180730100E010E020E00F
:104EF00030E0A9016982FA820B831C832D833E83F3
:104F00004F835887262D2A0F41E0261508F040E0F0
:104F1000FA81FF84FF0DE1E00A81F01708F0E0E07C
:104F2000342F3F0FA1E03F1708F0A0E0EA2B5B8190
:104F30001889510FF1E04B81541708F0F0E04E2F23
:104F4000450FE1E0451708F0E0E0FE2B1C815A898F
:104F5000150FE1E0AC811A1708F0E0E05F2F510F68
:104F6000F1E0511708F0F0E0EF2B1D81160FF1E092
:104F7000BD811B1708F0F0E06E2F610FE1E06117B3
:104F800008F0E0E0FE2B1E81170FE1E0EE801E1519
:104F900008F0E0E07F2F710FF1E0711708F0F0E00A
:104FA000EF2BFF81F80F11E0FF80FF1508F010E0F4
:104FB0008E2F8F0FE1E08F1708F0E0E01E2B0885A1
:104FC000900FD1011496ED91FC911597910F0B85DF
:104FD0001C8572010995882309F4DCC084189508A2
:104FE000920140E050E060E070E0CB01AB89BC8909
:104FF000D396EC91D397D4962C90D497D596EC90E9
:10500000D597D696FC90D697D796FC91D797D896F9
:105010003C90D897D996BC91B983AB89BC89DA9674
:10502000BC91BF87E40D01E0E41508F000E0B22D6B
:10503000B30F11E0B31708F010E00B0FA1E00B174E
:1050400008F0A0E01A2BA42FAE0DB1E0A41708F0D1
:10505000B0E01A0FEE24E3941A1708F0EE24BE29EC
:10506000F50EA1E0F51608F0A0E0BF0DB88BEE2418
:10507000E394BF1508F0EE24AE29F60F2224239402
:10508000F61708F02224AF0FAA8BFF24F394AF1772
:1050900008F0FF242F28F72FF30D33243394F7174C
:1050A00008F033242F0EFF24F3942F1608F0FF246A
:1050B0003F28F981F80FEE24E394F81708F0EE2466
:1050C0003F0EFF24F3943F1608F0FF24FE288F853F
:1050D000890FF80EAB89BC89D396EC93D397D496FD
:1050E0000C93D497D5961C93D597E889D696EC93D4
:1050F000D697FA89D796FC93D797D8962C92D897BB
:10510000D9963C92D997DA96FC92DA97C201860D2D
:10511000971DE984FA848E159F0560F18D919C910D
:10512000B601A5010E944012611571058105910526
:10513000E9F48114910489F0AB89BC898D919C912B
:10514000B601A50101E010E020E030E00E947815F2
:10515000611571058105910549F4EB89FC89F98B8D
:10516000E88B13AE14AE15AE16AE1DC05B016C011C
:1051700066247724EB89FC89A3AEB4AEC5AED6AE67
:105180008114910461F0EB84FC84E40CF51CFC8632
:10519000EB8692CE0B891C89198B088B04C02B8956
:1051A0003C89398B288BA889B989D3967C91D39770
:1051B000D4962C91D497D5969C91D597D6968C91D0
:1051C000D697D7963C91D797D8964C91D897D996A1
:1051D0005C91D997DA966C91DA9797964D905D909D
:1051E0006D907C909A9763015201EE24FF24870111
:1051F0001617E0F06117B1F50517C0F0501791F5DB
:10520000F416A0F04F1571F5E31680F03E1551F538
:10521000D81660F08D1531F5C91640F09C1511F5C2
:10522000B21620F02B15F1F44716E0F4E889F9895D
:1052300077A320A791A782A7DF018D919D91BD0142
:105240000E94CF1A882371F4E889F98983A894A869
:1052500084189508A3AAB4AAC5AAD6AA17AA10AEFC
:1052600011AE12AE2D853E852819390902C02FEFE7
:105270003FEFC90164960FB6F894DEBF0FBECDBFF5
:10528000CF91DF911F910F91FF90EF90DF90CF9022
:10529000BF90AF909F908F907F906F905F904F9056
:1052A0003F902F900895CF93DF93DB010097B1F1EA
:1052B0001097A1F190962C91909724FF2FC02091E8
:1052C000DB033091DC032115310551F020911404EA
:1052D000309115042115310509F5E4E1F4E002C02F
:1052E000EBEDF3E09F012E5F3F4FBD0141E3EB018A
:1052F0000990BE01E90109929E014150C1F79183D5
:10530000808391962D913D914D915C91949723AB23
:1053100034AB45AB56AB10AE17AA02C0E0E0F0E0EC
:10532000CF01DF91CF910895009719F0FC01118210
:10533000108208952F923F924F925F926F927F92C8
:105340008F929F92AF92BF92CF92DF92EF92FF9295
:105350000F931F93DF93CF93CDB7DEB7E1970FB6CF
:10536000F894DEBF0FBECDBF99A788A77DA76CA715
:10537000009709F4CFC06115710509F4CBC0DC01B9
:105380002D903C901197F101008CF18DE02DFBA741
:10539000EAA7D3964D905D906D907C90D697D79666
:1053A0002D913C91D8973FA32EA3ECA5FDA581E3B9
:1053B000DF011D928A95E9F7FE01319685E0DF0154
:1053C0001D928A95E9F7ECA5FDA5FA83E9834114BE
:1053D00051046104710409F089C0D101ED91FC917F
:1053E000119780858B3039F49A964D905D906D9031
:1053F0007C909D977BC0F101028CF38DE02DD10153
:1054000092968D919C919397E81BF90BFBA7EAA7C5
:105410006DC08AA49BA4EEA1FFA18E1A9F0ACF01A2
:10542000A0E0B0E08EA79FA7A8ABB9AB4114510490
:105430006104710431F4F101A2A0B3A0C4A0D5A00D
:105440000BC0C101B301A2010E94A21859016A0157
:105450008EA59FA5A8A9B9A9A80EB91ECA1EDB1EB4
:105460001C821B82D101ED91FC910280F381E02D21
:105470009501A60160E070E080E090E08E010A5F97
:105480001F4FA0E2EA2EF12C6401BBE4AB2EB9E180
:10549000BB2E4E010894811C911C09958823D1F1E3
:1054A0008B819C81EEA1FFA1E80FF91FFFA3EEA362
:1054B0002AA53BA5E217F307C8F0C101B301A20179
:1054C0000E9440122B013C01611571058105910577
:1054D00059F4A8A5B9A593964D905D906D907C90D8
:1054E00096971FA21EA206C01FA21EA28D8188230E
:1054F00009F48FCFE8A5F9A543AA54AA65AA76AA0C
:105500002EA13FA130AF27AB81E0ACA5BDA59C91FA
:10551000992309F480E0E1960FB6F894DEBF0FBE40
:10552000CDBFCF91DF911F910F91FF90EF90DF9052
:10553000CF90BF90AF909F908F907F906F905F9033
:105540004F903F902F9008958F929F92AF92BF926D
:10555000CF92DF92EF92FF920F931F93CF93DF933F
:105560004C01EB018A01009709F466C0209709F409
:1055700063C08881882309F45FC04115510509F48F
:105580005BC08F3209F4219681E3D8011D928A9580
:10559000E9F780E1F80180A38881882309F44EC0EF
:1055A000C401B80180DE7C01009709F445C0CE013A
:1055B0006FE270E00E94FB32009739F0A82FAC1B1D
:1055C0005C010894A11CB11C29C0DE010D900020D3
:1055D000E9F71197AC1B5E01AA0EB11C1FC0F801C0
:1055E00001900020E9F73197E01BF10BEC15FD0568
:1055F000B9F4CE01B801A6010E940F33009781F4DF
:10560000C70192DECC0DDD1D88818823B9F0D80159
:1056100090968C91909784FD09C00EC0CA2EDD240F
:10562000C701B80187DE8823D1F603C0E501EE2467
:10563000FF24C70179DEB0CF80E001C081E0DF91B7
:10564000CF911F910F91FF90EF90DF90CF90BF907F
:10565000AF909F908F900895FC01009761F023A177
:1056600034A145A156A123AB34AB45AB56AB10AE2C
:1056700017AA81E0089580E00895AF92BF92CF927B
:10568000DF92EF92FF920F931F93CF93DF938C01E2
:105690007B01EA01009709F447C06115710509F41F
:1056A00043C0DB018C91882309F43EC0209709F4A4
:1056B0003BC0C801BE013EDE882341F0C701BE01E8
:1056C000A5D70097B1F7C801C7DF2EC0F801C08089
:1056D000D1805E01EC2FFB2D81E3DF011D928A95C5
:1056E000E9F7CE01B7014FE150E0A7D7B8016D5DF2
:1056F0007F4FC601AE010E94B71C29A73AA74BA74E
:105700005CA76DA77EA78FA798AB232B242B252BF7
:10571000262B272B282B292B39F0C601BE010E94EE
:10572000CF1A91E0882309F490E0892FDF91CF917F
:105730001F910F91FF90EF90DF90CF90BF90AF90AF
:105740000895ECE7F0E08081806C808380818F7D1C
:105750008083EAE7F0E080818068808380818F7DAC
:1057600080838081877F808380818760808380B30E
:105770008C7C80BB81B38C7C81BB089580917A0046
:10578000806580937A0080917A0084FFFCCF8091BD
:10579000780090917900392F20E02070337090E0EC
:1057A000282B392BC9010895ECE7F0E090818F7127
:1057B000907E892B808308958230910581F083301B
:1057C000910524F48130910581F407C0833091055F
:1057D00041F08430910549F406C080E003C081E0C7
:1057E00001C084E0E1CF85E0DFCF0895CF92DF9262
:1057F000EF92FF920F931F93CF93DF937B018C0166
:10580000EA0128D52DB73EB7285030400FB6F8949E
:105810003EBF0FBE2DBFCDB6DEB60894C11CD11C55
:10582000EDB7FEB7D283C18322E731E0F6013383BF
:10583000228375836483882777FD8095982F3DD5D3
:105840009B01AC01C801B70138D420E030E04AE741
:1058500054E4BFD5FFD4F601778366836ED72DB7A6
:105860003EB7285F3F4F0FB6F8943EBF0FBE2DBF27
:10587000DF91CF911F910F91FF90EF90DF90CF902C
:1058800008959091C80095FFFCCF8093CE0080E0F2
:1058900090E008958091C80087FFFCCF8091CE00F2
:1058A00090E008951F93DF93CF9300D0CDB7DEB77C
:1058B000EEEDF4E08091F100819384E0E63EF8079C
:1058C000C9F78091DE042091DF04253009F483C0FC
:1058D000263040F4213099F1213070F0233009F066
:1058E000E7C02DC0283009F4B3C0293009F4C6C080
:1058F000263009F0DDC087C0803821F0823809F0F9
:10590000D7C008C08091D9049091DA04992369F036
:1059100082600BC08091E2048093E9009091EB00DB
:1059200081E095FF80E01092E9009091E800977F78
:105930009093E8008093F1001092F10094C08823C6
:1059400019F0823009F0B4C090E08F719070009728
:1059500029F08230910509F0ADC00BC08091E004C0
:10596000813009F0A7C0233009F080E08093DA0489
:105970002CC08091E004882341F52091E204277037
:1059800009F498C02093E9008091EB0080FF1DC0CE
:105990008091DF04833021F48091EB00806213C09A
:1059A0008091EB0080618093EB0081E090E002C089
:1059B000880F991F2A95E2F78093EA001092EA0077
:1059C0008091EB0088608093EB001092E900809159
:1059D000E800877F4FC0882309F06AC01091E00477
:1059E0008091E800877F8093E800A9D08091E8004B
:1059F00080FF6FC01F7719F083E08093DD0410688B
:105A00001093E30057C08058823008F051C0809155
:105A1000E0049091E1046091E204AE014F5F5F4FBA
:105A20000E949004BC01009709F444C08091E800F2
:105A3000877F8093E80089819A8167D18091E8000F
:105A4000982F9B7F9093E8008F778093E80032C077
:105A5000803871F58091E800877F8093E80080911D
:105A6000DB048093F1008091E800982F9E7F909353
:105A7000E8008F778093E80062D01CC08823C1F4CF
:105A80009091E0049230B0F48091E800877F809399
:105A9000E8009093DB0453D08091DB04882311F05D
:105AA00084E001C083E08093DD040E94450302C0CE
:105AB0000E944F038091E80083FF11C08091EB00AA
:105AC00080628093EB008091E800877F8093E800FC
:105AD00006C08091DD04882309F088CFEBCF0F90BA
